S0130000537A645F70726F6772616D2E7372656389
S113000049C0000064C0000062C0000060C000007D
S11300105EC000005CC000005AC0000058C0000070
S113002056C0000054C0000052C0000050C0000080
S11300304EC000004CC000004AC0000048C0000090
S1130040F3C1000044C0000071C2000040C00000C1
S11300503EC0000042C300003AC0000038C00000A7
S113006036C0000034C0000032C0000030C00000C0
S11300702EC000002CC000002AC0000028C00000D0
S113008026C0000024C0000022C0000020C00000E0
S11300901EC0000011241FBECFEFD0E1DEBFCDBFD4
S11300A011E0A0E0B1E0EEEEFDE000E00BBF02C025
S11300B007900D92A830B107D9F721E0A8E0B1E08C
S11300C001C01D92AB34B207E1F76DD18EC698CF53
S11300D0CF92DF92EF92FF920F931F93CF93DF9310
S11300E07C018B016A0184E090E05ED5EC01892BF0
S11300F031F483E690E09DD3CE01EED518C0D982C9
S1130100C8821B821A82D7018D919C911197892BE9
S113011031F4CD93DC93F801D183C08308C0D801B6
S1130120ED91FC911197D383C283CD93DC93DF913E
S1130130CF911F910F91FF90EF90DF90CF90089592
S11301400F931F93CF93DF93FC01C081D1818881EA
S11301509981209709F18F01FC012281213011F04E
S1130160233079F4A8D48881998157D08A819B81DE
S1130170F8019183808388819981AED5CE01ACD575
S11301800BC0DDD38A819B81F801918380838881B0
S11301909981A2D5CE01A0D5DF91CF911F910F9166
S11301A0089581E08093D80080E012C0982F929542
S11301B0907F9093ED001092EF001092EE00109259
S11301C0F7001092F6001092F5001092F4008F5F81
S11301D08F3060F382E08093E20094E09093E30038
S11301E093E19093E4009FEF9093DE009FE7909358
S11301F0DF0090EB9093DB008093D8000895109279
S1130200ED001092F7001092F6001092F500109293
S1130210F40088E88093EF000895DC0113964C9174
S1130220139750E0542F442714968C911497482B1D
S1130230BA0180E18093ED009091DC0091FDFCCF48
S11302401092EE0012968C9112978130B1F51092B3
S1130250F0001092F10016968C9116978295880FF3
S1130260807E8093F20016962C91169715969C9199
S1130270159730E2939FC0011124922F969596957D
S11302809695892B8093F30080E009C0295F3F4F46
S1130290FD01E20FF31F90819093FA008F5F282FE6
S11302A0082E000C330BFB0132972E173F0770F317
S11302B0425040644093EF005FC018968C911897A9
S11302C0880F880F880F8093F00018962C91189748
S11302D017969C911797892F90E0880F991F880F84
S11302E0991F880F991F922F929596959770892B35
S11302F08093F10017962C91179716969C91169758
S1130300892F90E0880F991F880F991F880F991FD4
S1130310922F929596959770892B8093F20016965A
S11303202C91169715969C911597892F90E0880F1C
S1130330991F880F991F880F991F922F9295969550
S11303409770892B8093F30090E009C0275F3F4F9B
S1130350FD01E20FF31F80818093FA009F5F292F34
S1130360092E000C330BFB0134972E173F0770F353
S1130370445040654093EF008091EE0086FFFCCF2F
S11303801092EF001092EE0008958DE084BD8DE48C
S113039087BD82E080936E0008958FE181B91DB816
S11303A08FEF8EB90895F9DFFCDE83E390E036D257
S11303B0ECDF78942FEF81EE94E021508040904060
S11303C0E1F700C000001BDF80910A0190910B014E
S11303D0892B29F068E071E08AE091E0B1DE809138
S11303E046018111109246018091320181111092CF
S11303F0320180914501882381F092B181E08927FF
S113040082B980911301882331F092B182E0892767
S113041082B9109213011092450180911201882330
S113042091F210921201CFCF1F920F920FB60F923A
S113043011242F933F934F935F936F937F938F93E5
S11304409F93AF93BF9340911001509111014F5F5F
S11304505F4F509311014093100181E08093460156
S11304609A01ADECBCEC91D39695879596958795BA
S1130470969587959C01220F331F880F991F880F2B
S1130480991F880F991F820F931F4817590719F452
S113049081E0809332019A01369527953695279508
S11304A0ABE7B4E172D39695879564E6689F9001B3
S11304B0699F300D11244217530719F481E080938A
S11304C045019A01369527953695279536952795B2
S11304D0A5ECB0E25AD3929582958F7089279F70CC
S11304E0892768EE73E0869F9001879F300D969F61
S11304F0300D11244217530719F481E0809312013F
S1130500493E534020F01092110110921001BF9106
S1130510AF919F918F917F916F915F914F913F9197
S11305202F910F900FBE0F901F9018951F920F924E
S11305300FB60F9211240BB60F922F933F934F9344
S11305405F936F937F938F939F93AF93BF93CF9357
S1130550EF93FF93C091ED0083E190E025D3909356
S11305600D0180930C01892B41F483E662D18091C3
S11305700C0190910D01B0D39CC01092ED008091BC
S1130580EE0085FF94C08091EF0084FF40C081E0BD
S113059080930601E0910C01F0910D0184E08283C7
S11305A063EF70E0DB018C91869586958695858353
S11305B042EF50E0DA012C91DB019C91B0E29B9F69
S11305C0C0011124922F969596959695892B868332
S11305D061EF70E0DB012C91DA019C91B0E29B9F0A
S11305E0C0011124922F969596959695892B878311
S11305F02091F000DB019C91B0E29B9FC00111248B
S1130600922F969596959695892B808722C0109265
S11306100601E0910C01F0910D0182E082831582C4
S11306201682A3EFB0E08C918295869587708783BC
S11306302091F2009C91892F90E0880F991F880FD8
S1130640991F880F991F922F929596959770892BD1
S113065080874091EF004F70842F90E00496E091E2
S11306600C01F0910D019383848380E00DC0E82F89
S1130670F0E0399620910C0130910D01E20FF31F47
S11306809091FA0090838F5F841788F340910C0156
S113069050910D0168E071E08AE091E019DD10925B
S11306A0EE0088E88093EF0081E080933701C093E7
S11306B0ED00FF91EF91CF91BF91AF919F918F91F9
S11306C07F916F915F914F913F912F910F900BBE4E
S11306D00F900FBE0F901F9018951F920F920FB698
S11306E00F9211240BB60F922F933F934F935F9366
S11306F06F937F938F939F93AF93BF93CF93DF9326
S1130700EF93FF93D091C600C0911401EC2FF0E059
S1130710EB5EFE4FD08380911501853BE1F480911F
S113072016018236C1F481E08093440183E190E0B4
S11307303BD29093290180932801892B41F483E6CD
S113074078D08091280190912901C6D252C0E5E168
S1130750F1E01082118280914401882309F446C09B
S1130760E0912801F0912901EC0FF11DD0838091D3
S11307701401833091F42D2F30E0322F2227409141
S11307800E0150910F01242B352B30930F01209330
S11307900E018F5F809314012CC0843051F42D2FEF
S11307A030E030930F0120930E018F5F809314018A
S11307B020C0482F50E020910E0130910F012A5F94
S11307C03F4F4217530771F440912801509129017A
S11307D068E071E08AE091E07BDC109214011092F1
S11307E0440107C08F5F8093140103C0CF5FC0939F
S11307F01401FF91EF91DF91CF91BF91AF919F9140
S11308008F917F916F915F914F913F912F910F90B5
S11308100BBE0F900FBE0F901F9018959093C500BC
S11308208093C40086E08093C20088E98093C1006D
S113083008959091C00095FFFCCF8093C600089561
S11308405F926F927F928F929F92AF92BF92CF925C
S1130850DF92EF92FF920F931F93CF93DF93582E63
S11308604B017A01590182E090E09ED13C01892B31
S113087041F483E690E0DDDFC3012ED280E090E016
S11308804EC06701C00ED11E8FEFC81AD80AC60128
S11308908BD1EC01892B41F483E690E0CADFCE01D1
S11308A01BD280E090E03BC0588280E090E00CC016
S11308B09C012F5F3F4FFE01E20FF31FD401A80FED
S11308C0B91F8C918083C9018E159F0588F380E040
S11308D090E00CC0FC01EE0DFF1D3196EC0FFD1FE6
S11308E0D501A80FB91F2C91208301968017910779
S11308F088F380E090E030E020E007C0FE01E80FDC
S1130900F91F4081240F320F01968C159D05B0F319
S1130910F30120833183CE01DFD1862D972DDF9122
S1130920CF911F910F91FF90EF90DF90CF90BF90E8
S1130930AF909F908F907F906F905F9008956F928B
S11309407F928F929F92AF92BF92CF92DF92EF925B
S1130950FF920F931F93CF93DF9300D0CDB7DEB7F1
S11309605C01DC0113966C901397712C762C662431
S113097014968C91682A8301C30116D16C01892BCA
S113098099F483E690E055DFC601A6D183C0822F97
S113099090E0D601A80FB91F0596F501E80FF91FDD
S11309A080818C932F5F01C020E0243080F320E00D
S11309B00CC0A22FB0E01496AC0DBD1D0996F50134
S11309C0E80FF91F80818C932F5F822F90E0A8019C
S11309D0445051098417950760F34301B7E08B0E27
S11309E0911CC401E1D07C01892B31F483E690E0B1
S11309F020DFC70171D14EC085EBF701808382E609
S1130A008183D50112968C9182837382648220E063
S1130A100BC0E22FF0E03596EE0DFF1DD601A80FB6
S1130A20B91F8C9180832F5F822F90E080179107EC
S1130A3080F3F7018381898384818A83830196010A
S1130A4042E050E0BE016F5F7F4F8281F9DEF30127
S1130A503596EE0DFF1DDC012C912083B6E06B0E64
S1130A60711CF701E60DF71DDC0111968C91808352
S1130A7010E007C0F701E80FF91F808190E0D9DE8C
S1130A801F5F812F90E088159905A0F3C60124D13A
S1130A90C70122D10F900F90DF91CF911F910F9139
S1130AA0FF90EF90DF90CF90BF90AF909F908F908A
S1130AB07F906F900895AF92BF92CF92DF92EF92A2
S1130AC0FF920F931F93CF93DF9300D0CDB7DEB780
S1130AD07C01FC01A380B12CBA2CAA248481A82A0D
S1130AE08501C50161D06C01892B89F483E690E00E
S1130AF0A0DEC601F1D03CC0D601A80FB91F0596EF
S1130B00F701E80FF91F80818C932F5F01C020E06B
S1130B10822F90E08017910778F3F701838189830E
S1130B2084818A838501960142E050E0BE016F5FB3
S1130B307F4F828185DEF5013596EE0DFF1D3081F4
S1130B40FC012081321312C0F6E0AF0EB11CF70194
S1130B50EA0DFB1D2081FC018181281307C081E07F
S1130B608093130192B182E0892782B9C601B4D07F
S1130B700F900F90DF91CF911F910F91FF90EF9005
S1130B80DF90CF90BF90AF900895A29FB001B39F24
S1130B90C001A39F700D811D1124911DB29F700D82
S1130BA0811D1124911D08950F931F93CF93DF93FB
S1130BB08230910510F482E090E0E0914901F091D7
S1130BC04A0120E030E0A0E0B0E0309719F1408124
S1130BD051810281138148175907C8F0841795077A
S1130BE069F4109731F012960C93129713961C9394
S1130BF027C00093490110934A0122C021153105F1
S1130C0019F04217530718F49A01BD01EF01DF01EF
S1130C10F801DBCF21153105F9F0281B390B2430FD
S1130C20310580F48A819B816115710521F0FB01F6
S1130C309383828304C090934A0180934901FE0107
S1130C40329644C0FE01E20FF31F81939193225028
S1130C503109398328833AC02091470130914801F2
S1130C60232B41F420910201309103013093480178
S1130C702093470120910001309101012115310594
S1130C8041F42DB73EB74091040150910501241B56
S1130C90350BE0914701F0914801E217F307A0F406
S1130CA02E1B3F0B2817390778F0AC014E5F5F4FBE
S1130CB02417350748F04E0F5F1F509348014093A7
S1130CC047018193919302C0E0E0F0E0CF01DF910E
S1130CD0CF911F910F910895CF93DF93009709F45B
S1130CE081C0FC01329713821282A0914901B09114
S1130CF04A01109781F420813181820F931F209142
S1130D004701309148012817390751F5F0934801FC
S1130D10E093470167C0ED0120E030E0CE17DF0724
S1130D2040F44A815B819E0141155105F1F0EA01CD
S1130D30F5CFD383C28340815181840F951FC81797
S1130D40D90759F488819981840F951F029691835C
S1130D5080838A819B81938382832115310529F4C1
S1130D60F0934A01E09349013DC0E901FB83EA8322
S1130D7049915991C40FD51FEC17FD0761F4808187
S1130D809181840F951F0296E9019983888382815A
S1130D9093819B838A83E0E0F0E012968D919C918D
S1130DA01397009719F0FD01DC01F7CF8D919C9109
S1130DB011979D012E5F3F4F820F931F2091470192
S1130DC0309148012817390769F4309729F41092B3
S1130DD04A011092490102C013821282B093480161
S1110DE0A0934701DF91CF910895F894FFCFBF
S10B0DEE00004B01200001008C
S9030000FC
